:020000040800F2
:10000000B009002001010008FB090008950900085B
:10001000F9090008C3010008650A00080000000093
:10002000000000000000000000000000FF090008C0
:10003000C501000800000000FD090008010A0008D1
:100040001B0100081B0100081B0100081B01000820
:100050001B0100081B0100081B0100081B01000810
:100060001B0100081B0100081B0100081B01000800
:100070001B0100081B0100081B0100081B010008F0
:100080001B0100081B0100081B0100081B010008E0
:100090001B0100081B0100081B0100081B010008D0
:1000A0001B0100081B0100081B0100081B010008C0
:1000B0001B0100081B010008000000001B010008D4
:1000C0001B01000800000000000000001B010008E8
:1000D000000000001B0100081B01000800000000D8
:1000E0001B0100081B0100081B010008DFF80CD0F1
:1000F00000F02AF800480047A50A0008B0090020CF
:100100000648804706480047FEE7FEE7FEE7FEE7B1
:10011000FEE7FEE7FEE7FEE7FEE7FEE7630A00080C
:10012000ED000008D2B201E000F8012B491EFBD21D
:1001300070470022F6E710B513460A4604461946F2
:10014000FFF7F0FF204610BD064C074D06E0E068C3
:1001500040F0010394E8070098471034AC42F6D30E
:10016000FFF7C8FF500B0008700B000870B58C1823
:1001700010F8015B15F0070301D110F8013B2A11BB
:1001800006D110F8012B03E010F8016B01F8016BA8
:100190005B1EF9D12B0705D40023521E0DD401F8A4
:1001A000013BFAE710F8013BCB1A921C03E013F86D
:1001B000015B01F8015B521EF9D5A142D8D30020A2
:1001C00070BDFEE7704700002DE9F84FDFF89C9105
:1001D000002409F1040A0AF1040B23460F270BF14E
:1001E000040EBBE00125A5402A40AA4276D1DFF8E3
:1001F00080C14E68A6EB0C0866452BD00DDC032EA3
:1002000034D005DC36B3012E19D0022E2FD11BE0DD
:10021000112E16D0122E2AD119E0B8F5881F19D048
:1002200006DCB8F5803F15D0B8F5801F1FD111E06E
:10023000B8F5001F0ED0B8F5041F18D10AE0CB683E
:1002400015E0CB681B1D12E0CB6808330FE0CB68CC
:100250000C330CE08B682BB1012B4FF0080303D05B
:10026000456104E0042302E0056100E00023FF2A69
:1002700001D8064601E000F104064FEA840501D9E1
:10028000A5F12005D6F8008007FA05FC28EA0C083D
:1002900003FA05F548EA0508C6F800804D68ED0048
:1002A0005BD5344DAE6946F00106AE61AD6924F010
:1002B000030605F0010500952F4D06EB050CDCF853
:1002C0000850A607360F07FA06F825EA0805DFF8F2
:1002D000AC80404503D14FF0000810E03DE0DFF86E
:1002E000A080404502D14FF0010808E0DFF894807B
:1002F000404502D14FF0020801E04FF0030808FA30
:1003000006F848EA0508CCF808804D68D9F800607E
:10031000ED034D4601D5164300E096432E604D682F
:10032000DAF80060AD03554601D5164300E0964368
:100330002E604D68DBF80060ED025D4601D5164386
:1003400000E096432E604D68DEF80060AD02754611
:1003500001D5164300E096432E60641C0A6832FA09
:1003600004F57FF43FAFBDE8F88F000000040140C2
:100370000000111000100240000001400008014080
:10038000000C0140001001400AB1016170470904EE
:10039000FBE700000148806870470000A0050020CE
:1003A000024881680278114481607047A0050020EE
:1003B000074810B5016841F010010160032000F00A
:1003C00067F8002000F006F800F024F8002010BDC7
:1003D0000020024070B50D4D04464FF47A71287824
:1003E000B1FBF0F00A490968B1FBF0F000F0BEFA89
:1003F00048B9102C07D200222146501E00F028F8E0
:1004000000206C6070BD012070BD0000A0050020C0
:10041000AC0500200C4808B5816941F001018161FB
:10042000816901F001010091C16941F08051C16110
:10043000C06900F0805000900448416821F0E061FC
:1004400041F08061416008BD0010024000000140A1
:10045000F0B40E4B1B680C46C3F30223C3F107052F
:10046000042D00D90425191D072901D2002300E01D
:10047000DB1E012606FA05F1491E214099409E40E7
:10048000761E16403143F0BC00F0EDBA0CED00E0F2
:10049000064900F0070208684FF6FF03184040EADB
:1004A0000220034A10430860704700000CED00E092
:1004B0000000FA052DE9F0470F46050061D0434ED4
:1004C000306800F00700B84209D2306820F0070019
:1004D00038433060306800F00700B84251D12868D6
:1004E0003B4C810712D5400703D5606840F4E060BB
:1004F00060602878000703D5606840F46050606051
:100500006068A96820F0F000084360602878C007A0
:1005100028D06868012810D02168022810D08907E7
:1005200000292EDA616821F0030101436160FFF7C1
:1005300031FF804641F288390DE021688903EFE7F9
:100540008901EDE7FFF726FFA0EB0801494502D935
:100550000320BDE8F0876068696800F00C00B0EB2C
:10056000810FEFD1306800F00700B8420BD9306836
:1005700020F0070038433060306800F00700B842D0
:1005800001D00120E5E72878400705D56068E968D3
:1005900020F4E060084360602878000706D56068B2
:1005A000296920F4605040EAC100606000F018F84A
:1005B0006168084AC1F30311515CC84006490860EC
:1005C00006480068FFF706FF0020C2E7002002404F
:1005D00000100240400B0008AC050020A4050020DC
:1005E00012A185B00FC98DE80F0014A0144A00684D
:1005F00004905168134801F00C03042B10D0082B11
:100600000ED1C1F38343C9031DF803000AD5516815
:1006100004AAC1F34041515C0A4A5043B0FBF1F0D7
:1006200005B0704708494843FAE700000203040593
:10063000060708090A0B0C0D0E0F1010010200002E
:100640000010024000127A0000093D002DE9F84F29
:10065000040070D02078C04DC00749D06868C0F34E
:100660008100012807D06868C0F38100022809D101
:100670006868C00306D52868800339D560680028FB
:10068000E7D035E06068B0F5803F0BD010B1B0F531
:10069000A02F11D0286820F480302860286820F42A
:1006A000802002E0286840F480302860606890B1C3
:1006B000FFF770FE06460AE0286840F480202860B4
:1006C000F0E700BFFFF766FE801B642873D8286838
:1006D0008003F7D50CE0FFF75DFE064605E000BF9E
:1006E000FFF758FE801B6428F0D828688003F7D4F1
:1006F00020789A4E80074FF001094FF0000839D555
:10070000686810F00C0F07D06868C0F381000228F9
:1007100009D16868C00306D42868800714D5206909
:10072000012808D110E02069B0B1C6F80090FFF7A9
:1007300031FE074605E00AE1FFF72CFEC01B022848
:10074000C4D828688007F7D52868616920F0F800C8
:1007500040EAC10028600DE0C6F80080FFF71AFEED
:10076000074604E0FFF716FEC01B022823D82868BE
:100770008007F7D4207800072CD57948A169D9B132
:10078000C0F80090FFF706FE074604E0FFF702FE00
:10079000C01B02280FD8686A8007F7D571484FF44C
:1007A000FA510068B0FBF1F0009000BF0098411EC4
:1007B0000091FAD20EE080E0C0F80080FFF7EAFD79
:1007C000074604E0FFF7E6FDC01B022875D8686AFB
:1007D0008007F7D42078400760D5E8690027C0007B
:1007E00008D4E86940F08050E861E869012700F02A
:1007F000805000905C480168C90513D401688346A5
:1008000041F480710160FFF7C5FD824606E000BF3C
:10081000FFF7C0FDA0EB0A0064284ED8DBF800000B
:10082000C005F5D5E06801280AD008B1052813D025
:10083000286A20F001002862286A20F0040002E003
:10084000286A40F001002862E06841F2883B98B1D4
:10085000FFF7A0FD82460BE0286A40F00400286202
:10086000EEE700BFFFF796FDA0EB0A0159455AD805
:10087000286A8007F6D50CE0FFF78CFD824605E07C
:10088000FFF788FDA0EB0A0159454CD8286A80077C
:10089000F6D41FB1E86920F08050E861E06988B3C0
:1008A0006968C1F38101022944D00228C6F860803A
:1008B00004D0FFF76FFD044638E034E0FFF76AFD2F
:1008C000074604E0FFF766FDC01B02282BD8286806
:1008D0008001F7D4206AB0F5803F05D16868A1682F
:1008E00020F4003008436860D4E9080108436968CF
:1008F00021F4741108436860C6F86090FFF74AFD60
:10090000044606E025E000BFFFF744FD001B022877
:1009100009D828688001F7D51BE000BFFFF73AFD32
:10092000001B022802D90320BDE8F88F2868800147
:10093000F4D40EE00128F7D06868226A00F4803110
:10094000914204D1616A00F47010884201D0012004
:10095000EAE70020E8E70000001002400000424201
:1009600080044242AC0500200070004010B5401EDB
:10097000B0F1807F01D3012010BD4FF0E024606111
:100980000F21601700F06FF80020A06107202061A0
:10099000002010BDFEE7000010B586B000200090DA
:1009A0000190029003901248816941F02001816119
:1009B000816901F020010491816941F004018161A4
:1009C00080690C4C00F0040004900022FF212046B6
:1009D000FFF7DAFCFF200090012001900220029036
:1009E0000320039069462046FFF7EEFB06B010BDDA
:1009F0000010024000080140FEE7FEE77047704724
:100A0000FFF7CEBC30B58FB028216846FFF791FBC9
:100A100014210AA8FFF78DFB01210804CDE900107D
:100A20000024029402250491CDE907504FF4E01010
:100A300009906846FFF70AFE08B172B6FEE70F207C
:100A4000CDE90A054FF48060CDE90C4002210AA8E7
:100A50000E94FFF72FFD002801D072B6FEE70FB00D
:100A600030BD7047FEE70907090E002804DB00F1DE
:100A7000E02080F80014704700F00F0000F1E02043
:100A800080F8141D704702E008C8121F08C1002A30
:100A9000FAD170477047002001E001C1121F002AFF
:100AA000FBD17047FFF784FCFFF7ACFFFFF774FF43
:100AB000064D4FF4B476002455F8240000F008F8F1
:100AC000641CA4B2B442F7D3F5E700000000002094
:100AD00070B51A4D044600F0010201212846FFF7C7
:100AE00053FCC4F3400202212846FFF74DFCC4F337
:100AF000800204212846FFF747FCC4F3C002082106
:100B00002846FFF741FCC4F3001210212846FFF7E6
:100B10003BFCC4F3401220212846FFF735FCC4F308
:100B2000801240212846FFF72FFCC4F3C01228464C
:100B3000BDE870408021FFF727BC0000000801409D
:100B4000000000000000000001020304060708097D
:100B5000700B000800000020B00500006C010008C8
:100B6000F00D0008B005002000040000960A0008FF
:100B700032803282328432863288328B328D328FAA
:100B80003291329432963298329A329C329E32A10D
:100B900032A332A532A732A932AB32AD32AF32B175
:100BA00032B432B632B832BA32BC32BE32BF32C1DF
:100BB00032C332C532C732C932CB32CC32CE32D058
:100BC00032D232D332D532D732D832DA32DC32DDD9
:100BD00032DF32E032E232E332E432E632E732E868
:100BE00032EA32EB32EC32ED32EE32EF32F032F208
:100BF0005AF30432F432F532F632F732F85AF90485
:100C000032FA5AFB045AFC045AFD049AFE040A39CB
:100C1000FF04A948695C696C697C2988699429A0EA
:100C200029A829B029B829C0290429CC29D85AF1E2
:100C3000E429F029F832EC32EB32EA32E832E732DA
:100C4000E632E432E332E232E032DF32DD32DC320D
:100C5000DA32D932D732D532D432D232D032CE3261
:100C6000CD32CB32C932C732C532C332C232C032C2
:100C7000BE32BC32BA32B832B632B432B232B0322C
:100C8000AE32AB32A932A732A532A332A1329F32A3
:100C90009C329A3298329632943292328F328D321E
:100CA0008B32893286328432823280327D327B329C
:100CB000793277327532723270326E326C3269321A
:100CC00067326532633261325F325C325A32583297
:100CD00056325432523250324E324C324A3248320C
:100CE00046324432423240323E323C323A3238327C
:100CF00036323432333231322F322D322C322A32E4
:100D00002832273225322432223221321F321E323B
:100D10001C321B3219321832173216321432133287
:100D20001232113210320F320E320D320C320B32BF
:100D30000A320932085A070432065A050432045AA4
:100D400003045A02049A0104013CA948695C696CD5
:100D500029782904298429902904299C29A829B0C3
:100D600029B8290429C429CC29D429DC29E429EC6F
:100D700029F8321332143215321632183219321A57
:100D8000321C321D321F32203222322332253226CB
:100D90003228322A322B322D322F32303232323454
:100DA000323632383239323B323D323F32413243D1
:100DB000324532473249324B324D324F3251325343
:100DC00032553258325A325C325E326032623265AB
:100DD00032673269326B326D32703272327432760F
:100DE0003278327B327D5A01F4511324F400000032
:04000005080000ED02
:00000001FF
